{
  "_format": "hh3-artifact-1",
  "contractName": "BlindBid",
  "sourceName": "contracts/BlindBid.sol",
  "abi": [
    {
      "inputs": [
        {
          "internalType": "uint256",
          "name": "_commitDurationInSeconds",
          "type": "uint256"
        },
        {
          "internalType": "uint256",
          "name": "_revealDurationInSeconds",
          "type": "uint256"
        },
        {
          "internalType": "address",
          "name": "_beneficiary",
          "type": "address"
        }
      ],
      "stateMutability": "nonpayable",
      "type": "constructor"
    },
    {
      "inputs": [],
      "name": "AlreadyCommitted",
      "type": "error"
    },
    {
      "inputs": [],
      "name": "AuctionAlreadyEnded",
      "type": "error"
    },
    {
      "inputs": [],
      "name": "BidExceedsDeposit",
      "type": "error"
    },
    {
      "inputs": [],
      "name": "HashMismatch",
      "type": "error"
    },
    {
      "inputs": [],
      "name": "InvalidDeposit",
      "type": "error"
    },
    {
      "inputs": [],
      "name": "NothingToReveal",
      "type": "error"
    },
    {
      "inputs": [],
      "name": "NothingToWithdraw",
      "type": "error"
    },
    {
      "inputs": [],
      "name": "PhaseNotActive",
      "type": "error"
    },
    {
      "inputs": [],
      "name": "ReentrancyGuardReentrantCall",
      "type": "error"
    },
    {
      "inputs": [],
      "name": "TransferFailed",
      "type": "error"
    },
    {
      "anonymous": false,
      "inputs": [
        {
          "indexed": false,
          "internalType": "address",
          "name": "winner",
          "type": "address"
        },
        {
          "indexed": false,
          "internalType": "uint256",
          "name": "highestBid",
          "type": "uint256"
        }
      ],
      "name": "AuctionEnded",
      "type": "event"
    },
    {
      "anonymous": false,
      "inputs": [
        {
          "indexed": true,
          "internalType": "address",
          "name": "bidder",
          "type": "address"
        },
        {
          "indexed": false,
          "internalType": "bytes32",
          "name": "blindedBid",
          "type": "bytes32"
        }
      ],
      "name": "BidCommitted",
      "type": "event"
    },
    {
      "anonymous": false,
      "inputs": [
        {
          "indexed": true,
          "internalType": "address",
          "name": "bidder",
          "type": "address"
        },
        {
          "indexed": false,
          "internalType": "uint256",
          "name": "amount",
          "type": "uint256"
        }
      ],
      "name": "BidRevealed",
      "type": "event"
    },
    {
      "anonymous": false,
      "inputs": [
        {
          "indexed": true,
          "internalType": "address",
          "name": "withdrawer",
          "type": "address"
        },
        {
          "indexed": false,
          "internalType": "uint256",
          "name": "amount",
          "type": "uint256"
        }
      ],
      "name": "Withdrawal",
      "type": "event"
    },
    {
      "inputs": [],
      "name": "auctionEnded",
      "outputs": [
        {
          "internalType": "bool",
          "name": "",
          "type": "bool"
        }
      ],
      "stateMutability": "view",
      "type": "function"
    },
    {
      "inputs": [],
      "name": "beneficiary",
      "outputs": [
        {
          "internalType": "address",
          "name": "",
          "type": "address"
        }
      ],
      "stateMutability": "view",
      "type": "function"
    },
    {
      "inputs": [
        {
          "internalType": "address",
          "name": "",
          "type": "address"
        }
      ],
      "name": "bids",
      "outputs": [
        {
          "internalType": "bytes32",
          "name": "blindedBid",
          "type": "bytes32"
        },
        {
          "internalType": "uint256",
          "name": "deposit",
          "type": "uint256"
        }
      ],
      "stateMutability": "view",
      "type": "function"
    },
    {
      "inputs": [
        {
          "internalType": "bytes32",
          "name": "_blindedBid",
          "type": "bytes32"
        }
      ],
      "name": "commit",
      "outputs": [],
      "stateMutability": "payable",
      "type": "function"
    },
    {
      "inputs": [],
      "name": "commitEndTime",
      "outputs": [
        {
          "internalType": "uint256",
          "name": "",
          "type": "uint256"
        }
      ],
      "stateMutability": "view",
      "type": "function"
    },
    {
      "inputs": [],
      "name": "highestBid",
      "outputs": [
        {
          "internalType": "uint256",
          "name": "",
          "type": "uint256"
        }
      ],
      "stateMutability": "view",
      "type": "function"
    },
    {
      "inputs": [],
      "name": "highestBidder",
      "outputs": [
        {
          "internalType": "address",
          "name": "",
          "type": "address"
        }
      ],
      "stateMutability": "view",
      "type": "function"
    },
    {
      "inputs": [
        {
          "internalType": "address",
          "name": "",
          "type": "address"
        }
      ],
      "name": "pendingReturns",
      "outputs": [
        {
          "internalType": "uint256",
          "name": "",
          "type": "uint256"
        }
      ],
      "stateMutability": "view",
      "type": "function"
    },
    {
      "inputs": [
        {
          "internalType": "uint256",
          "name": "_amount",
          "type": "uint256"
        },
        {
          "internalType": "string",
          "name": "_secret",
          "type": "string"
        }
      ],
      "name": "reveal",
      "outputs": [],
      "stateMutability": "nonpayable",
      "type": "function"
    },
    {
      "inputs": [],
      "name": "revealEndTime",
      "outputs": [
        {
          "internalType": "uint256",
          "name": "",
          "type": "uint256"
        }
      ],
      "stateMutability": "view",
      "type": "function"
    },
    {
      "inputs": [],
      "name": "settleAuction",
      "outputs": [],
      "stateMutability": "nonpayable",
      "type": "function"
    },
    {
      "inputs": [],
      "name": "withdraw",
      "outputs": [],
      "stateMutability": "nonpayable",
      "type": "function"
    }
  ],
  "bytecode": "0x60e060405234801561000f575f5ffd5b50604051610b58380380610b5883398101604081905261002e91610083565b60017f9b779b17422d0df92223018b32b4d1fa46e071723d6817e2486d003becc55f005561005c83426100c5565b608081905261006c9083906100c5565b60a0526001600160a01b031660c052506100ea9050565b5f5f5f60608486031215610095575f5ffd5b83516020850151604086015191945092506001600160a01b03811681146100ba575f5ffd5b809150509250925092565b808201808211156100e457634e487b7160e01b5f52601160045260245ffd5b92915050565b60805160a05160c051610a216101375f395f8181610119015261067d01525f818161024d015281816102da01526105a001525f81816101780152818161029901526107180152610a215ff3fe6080604052600436106100a5575f3560e01c8063864333741161006257806386433374146101e157806391f901571461020a578063a4d0a17e14610228578063d49dc1d81461023c578063d57bde791461026f578063f14fcbc814610284575f5ffd5b806326b387bb146100a95780632fa4548b146100e757806338af3eed146101085780633ccfd60b146101535780635a7013aa1461016757806362ea82db1461019a575b5f5ffd5b3480156100b4575f5ffd5b506100d46100c3366004610856565b60046020525f908152604090205481565b6040519081526020015b60405180910390f35b3480156100f2575f5ffd5b50610106610101366004610897565b610297565b005b348015610113575f5ffd5b5061013b7f000000000000000000000000000000000000000000000000000000000000000081565b6040516001600160a01b0390911681526020016100de565b34801561015e575f5ffd5b506101066104a2565b348015610172575f5ffd5b506100d47f000000000000000000000000000000000000000000000000000000000000000081565b3480156101a5575f5ffd5b506101cc6101b4366004610856565b60036020525f90815260409020805460019091015482565b604080519283526020830191909152016100de565b3480156101ec575f5ffd5b506002546101fa9060ff1681565b60405190151581526020016100de565b348015610215575f5ffd5b505f5461013b906001600160a01b031681565b348015610233575f5ffd5b5061010661059e565b348015610247575f5ffd5b506100d47f000000000000000000000000000000000000000000000000000000000000000081565b34801561027a575f5ffd5b506100d460015481565b610106610292366004610954565b610716565b7f00000000000000000000000000000000000000000000000000000000000000008042116102d8576040516321094a9b60e01b815260040160405180910390fd5b7f00000000000000000000000000000000000000000000000000000000000000008042111561031a576040516321094a9b60e01b815260040160405180910390fd5b335f9081526003602052604081206001810154909181900361034f576040516332cce4d560e11b815260040160405180910390fd5b5f868660405160200161036392919061096b565b604051602081830303815290604052805190602001209050825f0154811461039e57604051633f4d605360e01b815260040160405180910390fd5b818711156103bf576040516379dd5d2b60e11b815260040160405180910390fd5b5f808455600180850191909155548290881115610439575f546001600160a01b031615610416576001545f80546001600160a01b03168152600460205260408120805490919061041090849061099f565b90915550505b60018890555f80546001600160a01b0319163317905561043688826109b8565b90505b801561046357335f908152600460205260408120805483929061045d90849061099f565b90915550505b60405188815233907f9891bd98143d5a2c5f29be9a7ef8e5d7b723746fb3b75220234af7aa6caeecfe9060200160405180910390a25050505050505050565b6104aa61080c565b335f90815260046020526040812054908190036104da57604051630686827b60e51b815260040160405180910390fd5b335f818152600460205260408082208290555190919083908381818185875af1925050503d805f8114610528576040519150601f19603f3d011682016040523d82523d5f602084013e61052d565b606091505b505090508061054f576040516312171d8360e31b815260040160405180910390fd5b60405182815233907f7fcf532c15f0a6db0bd6d0e038bea71d30d808c7d98cb3bf7268a95bf5081b659060200160405180910390a2505061059c60015f5160206109cc5f395f51905f5255565b565b7f00000000000000000000000000000000000000000000000000000000000000008042116105df576040516321094a9b60e01b815260040160405180910390fd5b6105e761080c565b60025460ff161561060b5760405163d02e774d60e01b815260040160405180910390fd5b6002805460ff191660019081179091555f549054604080516001600160a01b03909316835260208301919091527fdaec4582d5d9595688c8c98545fdd1c696d41c6aeaeb636737e84ed2f5c00eda910160405180910390a1600154156106fd576001546040515f916001600160a01b037f000000000000000000000000000000000000000000000000000000000000000016918381818185875af1925050503d805f81146106d4576040519150601f19603f3d011682016040523d82523d5f602084013e6106d9565b606091505b50509050806106fb576040516312171d8360e31b815260040160405180910390fd5b505b61071360015f5160206109cc5f395f51905f5255565b50565b7f000000000000000000000000000000000000000000000000000000000000000080421115610758576040516321094a9b60e01b815260040160405180910390fd5b335f9081526003602052604090206001015415610788576040516317fd8aab60e31b815260040160405180910390fd5b345f036107a857604051635972996f60e11b815260040160405180910390fd5b604080518082018252838152346020808301918252335f8181526003835285902093518455915160019093019290925591518481527f4993d1a01dd11fa6de1acf5952a36cf1b3f02f1fa3e764d14aa461230ec02eb0910160405180910390a25050565b610814610827565b60025f5160206109cc5f395f51905f5255565b5f5160206109cc5f395f51905f525460020361059c57604051633ee5aeb560e01b815260040160405180910390fd5b5f60208284031215610866575f5ffd5b81356001600160a01b038116811461087c575f5ffd5b9392505050565b634e487b7160e01b5f52604160045260245ffd5b5f5f604083850312156108a8575f5ffd5b82359150602083013567ffffffffffffffff8111156108c5575f5ffd5b8301601f810185136108d5575f5ffd5b803567ffffffffffffffff8111156108ef576108ef610883565b604051601f8201601f19908116603f0116810167ffffffffffffffff8111828210171561091e5761091e610883565b604052818152828201602001871015610935575f5ffd5b816020840160208301375f602083830101528093505050509250929050565b5f60208284031215610964575f5ffd5b5035919050565b8281525f82518060208501602085015e5f92016020019182525092915050565b634e487b7160e01b5f52601160045260245ffd5b808201808211156109b2576109b261098b565b92915050565b818103818111156109b2576109b261098b56fe9b779b17422d0df92223018b32b4d1fa46e071723d6817e2486d003becc55f00a26469706673582212200913507ecc74cf2a6a7e4692104f1b60e8e0dac44c1e8928839e546d0ad7312a64736f6c634300081c0033",
  "linkReferences": {},
  "deployedLinkReferences": {},
  "immutableReferences": {
    "262": [
      {
        "length": 32,
        "start": 376
      },
      {
        "length": 32,
        "start": 665
      },
      {
        "length": 32,
        "start": 1816
      }
    ],
    "264": [
      {
        "length": 32,
        "start": 589
      },
      {
        "length": 32,
        "start": 730
      },
      {
        "length": 32,
        "start": 1440
      }
    ],
    "266": [
      {
        "length": 32,
        "start": 281
      },
      {
        "length": 32,
        "start": 1661
      }
    ]
  },
  "inputSourceName": "project/contracts/BlindBid.sol",
  "buildInfoId": "solc-0_8_28-e7b66256815435889cb95a1e318be103c268dc67"
}